:100000000C9462000C948A000C948A000C948A0070
:100010000C948A000C948A000C948A000C948A0038
:100020000C948A000C948A000C948A000C948A0028
:100030000C948A000C948A000C948A000C948A0018
:100040000C94FA030C948A000C948A000C948A0095
:100050000C948A000C948A000C948A000C948A00F8
:100060000C948A000C948A000000000024002700F1
:100070002A0000000000250028002B0000000000DE
:1000800023002600290004040404040404040202DA
:100090000202020203030303030301020408102007
:1000A0004080010204081020010204081020000012
:1000B0000008000201000003040700000000000027
:1000C00000004A0811241FBECFEFD8E0DEBFCDBF2D
:1000D00011E0A0E0B1E0E2E2F2E102C005900D9291
:1000E000AA33B107D9F721E0AAE3B1E001C01D921C
:1000F000A93DB207E1F710E0C2E6D0E004C02197C5
:10010000FE010E94FA08C136D107C9F70E944404D3
:100110000C940F090C94000096E0899FD0011124E3
:10012000AE5ABE4F90967C936E935F9791E09196F6
:100130009C939197E091BF01F091C0019091BE0115
:10014000992339F0309751F0811108C080916E01E8
:100150000994309719F05C968C91FACF0895CF925C
:10016000DF92EF92FF920F931F9396E0899FF00129
:100170001124EE5AFE4F11A2278D30A121303105F6
:1001800051F178F02230310509F451C023303105A6
:1001900009F452C01F910F91FF90EF90DF90CF9024
:1001A00008956623B9F361E070E00E948C002FB7D8
:1001B000F89480914E0190914F01A0915001B0911F
:1001C00051012FBF8093AA019093AB01A093AC0182
:1001D000B093AD01DFCF9FB7F894C0904E01D0909F
:1001E0004F01E0905001F09051019FBF0091AA0192
:1001F0001091AB012091AC013091AD01C01AD10A30
:10020000E20AF30A0091BC011091BD0130E020E048
:100210000C151D052E053F0550F462E070E01F919E
:100220000F91FF90EF90DF90CF900C948C006111B4
:10023000B1CF63E070E0F3CF70E060E0F0CFAF9259
:10024000BF92CF92DF92EF92FF920F931F93CF93C3
:10025000DF936C017B018B01040F151FEB015E0125
:10026000AE18BF08C017D10759F06991D601ED91BA
:10027000FC910190F081E02DC6010995892B79F759
:10028000C501DF91CF911F910F91FF90EF90DF900B
:10029000CF90BF90AF900895833081F028F48130E3
:1002A00099F08230A9F008958730A9F08830C9F01C
:1002B0008430B1F4809180008F7D03C080918000F4
:1002C0008F7780938000089584B58F7784BD0895DB
:1002D00084B58F7DFBCF8091B0008F778093B00085
:1002E00008958091B0008F7DF9CFCF93DF93282FB1
:1002F00030E0F901E255FF4F8491F901E656FF4FD6
:10030000D491F901EA57FF4FC491CC23A1F0811198
:100310000E944C01EC2FF0E0EE0FFF1FE458FF4F5E
:10032000A591B491EC91ED2381E090E009F480E097
:10033000DF91CF91089580E090E0FACF862F0C9462
:1003400075011F93CF93DF93282F30E0F901E25519
:10035000FF4F8491F901E656FF4FD491F901EA5716
:10036000FF4FC491CC23A9F0162F81110E944C019C
:10037000EC2FF0E0EE0FFF1FEE58FF4FA591B49168
:100380008FB7F894EC91111108C0D095DE23DC935F
:100390008FBFDF91CF911F910895DE2BF8CF862F6D
:1003A000642F0C94A101CF93DF9390E0FC01E656FB
:1003B000FF4F24918A579F4FFC0184918823C9F0F5
:1003C00090E0880F991FFC01E859FF4FA591B49167
:1003D000FC01EE58FF4FC591D49161110DC09FB73C
:1003E000F8948C91209582238C93888128232883EC
:1003F0009FBFDF91CF910895623051F49FB7F89479
:100400003C91822F809583238C93E8812E2BEFCF14
:100410008FB7F894EC912E2B2C938FBFEACF862FB9
:10042000642F0C94D3013FB7F89480913B019091D5
:100430003C01A0913D01B0913E0126B5A89B05C0AD
:100440002F3F19F00196A11DB11D3FBFBA2FA92F53
:10045000982F8827BC01CD01620F711D811D911D50
:1004600042E0660F771F881F991F4A95D1F70895BC
:10047000089590E080E008958F929F92AF92BF928E
:100480000F931F93CF93DF93CDB7DEB7A1970FB62E
:10049000F894DEBF0FBECDBF19A2423008F44AE087
:1004A0008E010F5D1F4F842E912CB12CA12CA50124
:1004B00094010E94CD08E62FB901CA01EA3044F543
:1004C000E05DD801EE938D01232B242B252B79F7AA
:1004D00090E080E0109769F0FD0101900020E9F7BD
:1004E0003197AF014A1B5B0BBD0181EC91E00E948B
:1004F0001F01A1960FB6F894DEBF0FBECDBFDF91EE
:10050000CF911F910F91BF90AF909F908F900895C2
:10051000E95CD7CFCF93DF93EC0160E08E810E943E
:10052000A10161E08E810E94A10160E08E810E94A4
:10053000A1018BE891E00197F1F7DF91CF91089548
:10054000CF92DF92EF92FF920F931F93CF93DF939F
:100550006C017C0187E0E80EF11CD0E0C0E0062FC2
:1005600010E0B8010C2E02C0759567950A94E2F769
:100570006170F70181917F010E94A1012196C43031
:10058000D10579F7C601DF91CF911F910F91FF90AF
:10059000EF90DF90CF900C948A02CF92DF92EF928F
:1005A000FF920F931F93CF93DF93EC01F62E642FEE
:1005B0008C810E94A1018D818F3F19F060E00E9423
:1005C000A1010F2D10E08F8584FF25C06E0187E00B
:1005D000C80ED11CF12CE12CB8010E2C02C075956F
:1005E00067950A94E2F76170F60181916F010E94AC
:1005F000A101FFEFEF1AFF0A88E0E816F10461F7A6
:10060000CE01DF91CF911F910F91FF90EF90DF907E
:10061000CF900C948A02B80184E0759567958A950D
:10062000E1F7CE010E94A0026F2DCE01DF91CF91A4
:100630001F910F91FF90EF90DF90CF900C94A0024C
:1006400040E0682F81EC91E00C94CD0281E00E94A3
:1006500020038BE39FE10197F1F70895CF93DF9398
:10066000823029F49091D00198609093D0018093CA
:10067000D4011092D50180E48093D60180E180936B
:10068000D70180E58093D80161E08091C5010E9487
:10069000D3018091C6018F3F19F061E00E94D30120
:1006A00061E08091C7010E94D301C1ECD1E09E01BD
:1006B000215C31408091D00184FD0BC084E090E04A
:1006C00021962817390744F461E08E810E94D301F6
:1006D000EECF88E090E0F4CF8BE39DE00197F1F757
:1006E00060E08091C5010E94A10160E08091C70196
:1006F0000E94A1018091C6018F3F19F060E00E9425
:10070000A1018091D00184FD34C063E081EC91E0CF
:100710000E94A002CBE4D6E4CE010197F1F763E09A
:1007200081EC91E00E94A0022197F1F763E081EC57
:1007300091E00E94A00283E592E00197F1F762E068
:1007400081EC91E00E94A0028091D00180620E9421
:10075000200384E08093D1018CE00E9420030E945A
:10076000260382E08093D20186E0DF91CF910C9442
:10077000200380620E9420038BE496E40197F1F746
:100780008091D00180620E94200383E592E001976E
:10079000F1F78091D00180620E942003D5CF41E023
:1007A0000E94CD0281E090E00895CF92DF92EF9217
:1007B000FF9297FF18C06B017C0141E06DE281EC74
:1007C00091E00E94CD0266277727CB016C197D0945
:1007D0008E099F094AE00E943C020196FF90EF902B
:1007E000DF90CF9008954AE0FF90EF90DF90CF9098
:1007F0000C943C021F920F920FB60F9211242F936C
:100800003F938F939F93AF93BF9380914E019091AD
:100810004F01A0915001B091510130913A0123E074
:10082000230F2D3758F50196A11DB11D20933A01D4
:1008300080934E0190934F01A0935001B0935101CA
:1008400080913B0190913C01A0913D01B0913E010E
:100850000196A11DB11D80933B0190933C01A09393
:100860003D01B0933E01BF91AF919F918F913F9118
:100870002F910F900FBE0F901F90189526E8230F11
:100880000296A11DB11DD2CF789484B5826084BD3B
:1008900084B5816084BD85B5826085BD85B5816084
:1008A00085BD80916E00816080936E001092810002
:1008B00080918100826080938100809181008160BD
:1008C000809381008091800081608093800080917E
:1008D000B10084608093B1008091B000816080930A
:1008E000B00080917A00846080937A0080917A00D1
:1008F000826080937A0080917A00816080937A0090
:1009000080917A00806880937A001092C10082E022
:100910000E942E034AE050E06EE271E081EC91E02B
:100920000E941F010E9413024B015C0150EDC52E75
:1009300057E0D52EE12CF12C0E9413026819790999
:100940008A099B09683E734081059105A8F321E05F
:10095000C21AD108E108F10858EE850E53E0951E41
:10096000A11CB11CC114D104E104F10429F70E94B7
:10097000260336E0232E312C412C512C45E0842EC9
:10098000912CA12CB12C81E08093BE018FB7F894FB
:1009900040914E0150914F01609150017091510171
:1009A0008FBF8091AE019091AF01A091B001B09145
:1009B000B101481B590B6A0B7B0B8091BA019091D6
:1009C000BB01B0E0A0E084179507A607B70708F0C1
:1009D0003DC1C0E08091B801C81760F4E091B40156
:1009E000F091B501EC0FF11D62E080810E94D3010E
:1009F000CF5FF0CF712C8091B901781608F061C0FB
:100A0000072D10E0E091B601F091B701E00FF11F62
:100A100061E080810E94D301E091B601F091B701BD
:100A2000E00FF11F60E080810E94A10181E090E071
:100A3000A0E0B0E0072C04C0880F991FAA1FBB1FBD
:100A40000A94D2F76C017C01E094F094612C8091BF
:100A5000B8016816F8F4C62DD0E0E091B401F09129
:100A6000B501EC0FFD1F80810E9475012496CC0F0B
:100A7000DD1FCE5ADE4F892B41F4888199818C2964
:100A80009D29998388836394E2CF888199818E21FF
:100A90009F21F7CFE091B601F091B701E00FF11F70
:100AA00061E080810E94A1018091B6019091B7011F
:100AB000080F191F60E0F80180810E94D301739430
:100AC0009ACF92E5C92E91E0D92EE6018F8D98A19B
:100AD000892B31F41C8E8FEF9FEF9E8F8D8F19A283
:100AE000269691E0CE38D90789F710E08091B801B9
:100AF000181708F053C000E0E12EF12CEE0CFF1C9B
:100B0000D701A65ABE4F7D012091B901021708F006
:100B100043C0F70160817181002E02C07695679510
:100B20000A94E2F7129F90011124200F311DE2E593
:100B3000F1E080E0458D568D2417350709F470C229
:100B40008F5F36968A30B1F760FF24C0E2E5F1E0AE
:100B500090E080E0448D411118C0E091B201F09125
:100B6000B301E20FF31F408156E0589FF001599FF7
:100B7000F00D1124EE5AFE4F448F368F258F10A2B0
:100B8000178E61E00E94AF0005C0019636968A304C
:100B9000910501F70F5FB8CF1F5FA8CF80E0D601A6
:100BA00091969C919111892FB6E0CB0ED11CCC155A
:100BB000DD05A9F79FB7F89440914E0150914F0180
:100BC00060915001709151019FBF4093AE015093CD
:100BD000AF016093B0017093B1018823B9F18091A6
:100BE0007301882399F180917101909172010197AD
:100BF00069F5C0916E01C0934D01C1112CC0809167
:100C00004C01882309F4ACC120914701609148014F
:100C10007091490180914A0190914B012B3209F06A
:100C200088C1009143011091440120914501309108
:100C30004601060F171F281F391F00933F0110930D
:100C4000400120934101309342018AC11092BE01BC
:100C500010924D01D4CFE1E08091D4018111E0E008
:100C6000E195F0E0EF53FE4F848980680E942003F5
:100C700041E06C2F81EC91E00E94CD020E9426039E
:100C8000C13319F520913F0130914001409141015C
:100C90005091420181E090E0A0E0B0E021153105E3
:100CA0004105510509F4CFC0AAE0B0E00E94EF0869
:100CB0006F5F7F4F8F4F9F4F60933F017093400155
:100CC00080934101909342019ACFC233D9F420918D
:100CD0003F0130914001409141015091420182E039
:100CE00090E0A0E0B0E0211531054105510509F47F
:100CF000AAC0AAE0B0E00E94EF086E5F7F4F8F4F5E
:100D00009F4FDACFC43309F08DC120913F0130915C
:100D10004001409141015091420184E090E0A0E007
:100D2000B0E0211531054105510509F48CC0AAE058
:100D3000B0E00E94EF086C5F7F4F8F4F9F4FBCCF9A
:100D400020913F0130914001409141015091420179
:100D5000211531054105510549F480923F019092DA
:100D60004001A0924101B092420149CFAAE0B0E017
:100D70000E94EF086B5F7F4F8F4F9F4F9DCF209159
:100D80003F013091400140914101509142012115B4
:100D900031054105510549F420923F01309240014F
:100DA00040924101509242012ACFAAE0B0E00E9455
:100DB000EF086A5F7F4F8F4F9F4F7ECF20913F019B
:100DC00030914001409141015091420187E090E013
:100DD000A0E0B0E02115310541055105A1F1AAE0DF
:100DE000B0E00E94EF08695F7F4F8F4F9F4F64CF45
:100DF00020913F01309140014091410150914201C9
:100E000088E090E0A0E0B0E02115310541055105F2
:100E1000D1F0AAE0B0E00E94EF08685F7F4F8F4FEB
:100E20009F4F4ACF20913F013091400140914101B5
:100E300050914201211531054105510569F489E0C0
:100E400090E0A0E0B0E080933F0190934001A09338
:100E50004101B0934201D3CEAAE0B0E00E94EF0876
:100E6000675F7F4F8F4F9F4F27CF20913F0130917A
:100E70004001409141015091420121153105410548
:100E8000510509F4BCCEAAE0B0E00E94EF0814CFEF
:100E900010924301109244011092450110924601B4
:100EA000109248011092490110924A0110924B0190
:100EB00010923F01109240011092410110924201A4
:100EC00010924C019CCE80913F0190914001A091E5
:100ED0004101B09142018093430190934401A0935A
:100EE0004501B093460181E080934C0188CEC8371C
:100EF000E1F480913F0190914001A0914101B091B6
:100F000042018093480190934901A0934A01B09314
:100F10004B0110923F01109240011092410110923A
:100F200042018AE2809347016ACECF3209F497C02A
:100F300066CE2D3209F05FC000914301109144014B
:100F40002091450130914601601B710B820B930B80
:100F500060933F017093400180934101909342015F
:100F6000E091D401E23008F057C0E150F0E0EF53D7
:100F7000FE4F848980680E9420036091480170912F
:100F8000490180914A0190914B010E94D50341E0B3
:100F90006091470181EC91E00E94CD026091430194
:100FA0007091440180914501909146010E94D503C2
:100FB00080914C018823B9F0E091D401E23070F5C2
:100FC000E150F0E0EF53FE4F8489875F80680E9414
:100FD000200360913F017091400180914101909107
:100FE00042010E94D50380E090E0892B09F4CBCC2C
:100FF0000E940000C8CC2A3259F42091430130915C
:10100000440140914501509146010E94BD08A0CF86
:101010002F3209F406CEA4CFE1E0A8CFE1E0D1CF92
:101020006170B0CDC53309F48BCEC63309F4A7CEB9
:10103000C73309F4C3CEC83309F4DACEC93309F48F
:10104000F1CEC03309F411CFC33609F421CFCD332B
:1010500009F439CFCB3219F0CD3209F048CF809165
:101060003F0190914001A0914101B09142018093D4
:10107000480190934901A0934A01B0934B0110920B
:101080003F01109240011092410110924201C09321
:101090004701B5CD1092540110925801109257019A
:1010A0001092590188E291E090935301809352018C
:1010B000EEE6F1E01082148213821582369681E00A
:1010C000EA3AF807B9F784E091E09093B50180938C
:1010D000B40180E091E09093B7018093B60184E081
:1010E0008093B8018093B90128E031E03093B301D7
:1010F0002093B2012AE030E03093BB012093BA0183
:1011000024EF31E03093BD012093BC011092C00167
:101110001092BF011092AE011092AF011092B00177
:101120001092B1011092BE011092C4011092C3013D
:101130002CE131E03093C2012093C10195E09093FE
:10114000C5019FEF9093C6018093C70183E0809310
:10115000C80182E08093C90181E08093CA011092A6
:10116000CB011092CC011092CD011092CE011092C1
:10117000CF011092D0010C942E03DB018F939F932B
:101180000E94EF08BF91AF91A29F800D911DA39F78
:10119000900DB29F900D11240895A1E21A2EAA1B62
:1011A000BB1BFD010DC0AA1FBB1FEE1FFF1FA21717
:1011B000B307E407F50720F0A21BB30BE40BF50B14
:1011C000661F771F881F991F1A9469F7609570959D
:1011D000809590959B01AC01BD01CF0108950E94BF
:1011E0000009A59F900DB49F900DA49F800D911DA7
:1011F00011240895EE0FFF1F0590F491E02D09943E
:10120000A29FB001B39FC001A39F700D811D112447
:10121000911DB29F700D811D1124911D0895F894A8
:02122000FFCFFE
:10122200090807060D0C0B0A3738392F3435367882
:101232003132332D63303D2B00000000CF031F01FC
:1012420039023802000000000F02CF019E01436103
:0A1252006C63756C61746F7200002C
:00000001FF
